:020000040800F2
:10000000502D0020890100088119000833180008CC
:100010007D1900088F020008231B00080000000063
:10002000000000000000000000000000B11A0008FD
:10003000930200080000000085190008B31A0008A8
:10004000A3010008A3010008A3010008A301000800
:10005000A3010008A3010008A3010008A3010008F0
:10006000A3010008A3010008A3010008A3010008E0
:10007000A3010008A3010008A3010008A3010008D0
:10008000A3010008A3010008A3010008A3010008C0
:10009000A3010008A3010008A3010008A3010008B0
:1000A000A3010008A3010008A3010008A3010008A0
:1000B000A3010008A3010008A3010008A301000890
:1000C000A3010008A3010008A3010008A301000880
:1000D000A3010008A3010008A3010008A301000870
:1000E000A3010008A3010008A301000800F002F822
:1000F00000F03AF80AA090E8000C82448344AAF188
:100100000107DA4501D100F02FF8AFF2090EBAE885
:100110000F0013F0010F18BFFB1A43F0010318473B
:10012000FCCF00001CD00000103A24BF78C878C172
:10013000FAD8520724BF30C830C144BF04680C60ED
:10014000704700000023002400250026103A28BF35
:1001500078C1FBD8520728BF30C148BF0B60704739
:100160001FB51FBD10B510BD00F058F81146FFF7C0
:10017000F7FF01F0F5FC00F076F803B4FFF7F2FFAB
:1001800003BC00F07DF8000009488047094800479B
:10019000FEE7FEE7FEE7FEE7FEE7FEE7FEE7FEE737
:1001A000FEE7FEE704480549054A064B7047000094
:1001B000211B0008ED00000850160020502D0020E3
:1001C00050180020501800204FF0000200B51346D0
:1001D00094469646203922BFA0E80C50A0E80C5067
:1001E000B1F12001BFF4F7AF090728BFA0E80C5018
:1001F00048BF0CC05DF804EB890028BF40F8042B11
:1002000008BF704748BF20F8022B11F0804F18BF7D
:1002100000F8012B7047704770477047754600F033
:100220002BF8AE4605006946534620F00700854688
:1002300018B020B5FFF7B6FFBDE820404FF000062C
:100240004FF000074FF000084FF0000B21F00701BE
:10025000AC46ACE8C009ACE8C009ACE8C009ACE801
:10026000C0098D46704710B50446AFF300802046A4
:10027000BDE81040FFF781BF00487047F01500202F
:1002800001491820ABBEFEE726000200704700BF00
:10029000FEE770472DE9F0430646062E22D2DFE83E
:1002A00006F003080D171C1200210022FF23FF2473
:1002B00018E0002100220023002413E0FF21FF2288
:1002C000002300240EE000210022AA23552409E087
:1002D000AA2155220023002404E0AA2155225523F7
:1002E000AA2400BF00BF002035E0074600EBD77905
:1002F0004FEA6909A0EB4909B9F1000F01D089461D
:1003000000E09146CC46074600EBD7794FEA6909F1
:10031000A0EB4909B9F1000F01D0994600E0A146D0
:10032000C846002513E000EB800707EBC0072F4409
:10033000DFF82C9009F807C000EB800707EBC00737
:100340002F44DFF8209009F807806F1CBDB20D2DF7
:10035000E9DB471CB8B2D428C7DBBDE8F083000056
:10036000680000202C0B00202DE9FE4F05460E46AC
:1003700014469A460E9F672D0ADCD32E08DC2819F6
:10038000401E672804DC06EB0A00401ED32801DD6E
:10039000BDE8FE8FA846B3460020029069E0002029
:1003A000019026E097F800900020009019E009F0F5
:1003B000800028B1594640460C9A00F0F5F804E058
:1003C000594640460D9A00F0EFF84FEA49604FEA6F
:1003D000106908F1010000F0FF080098401CC0B24D
:1003E000009000980828E2DB7F1C0198401CC0B2F6
:1003F0000190E11704EB51720199B1EBE20FD1DBEF
:10040000E11704EB5171C910A4EBC10141B3002005
:1004100001901BE097F8009009F0800028B1594640
:1004200040460C9A00F0C0F804E0594640460D9A48
:1004300000F0BAF84FEA49604FEA106908F101008C
:1004400000F0FF080198401CC0B20190E11704EBD6
:100450005171C910A4EBC10201998A42DADC7F1CF8
:10046000A8460BF1010000F0FF0B0298401CC0B23F
:1004700002900298504592DB00BF89E72DE9FE4FBC
:1004800004460D4616461F46DDF83080672C09DC11
:10049000D32D07DCA019401E672803DCE819401E95
:1004A000D32801DDBDE8FE8FA246AB4600200190B7
:1004B0003EE0002000902FE098F800904FF6FF708B
:1004C00000EA092908F101008046007848441FFA33
:1004D00080F9B9F1000F0CD0B9F5784F06D0A9F525
:1004E0007F40FF3840B90120029005E000200290D3
:1004F00002E00220029000BF00BF59465046029A17
:1005000000F052F80AF1010000F0FF0A08F10108BA
:100510000098401CC0B200900098B042CCDBA246CC
:100520000BF1010000F0FF0B0198401CC0B20190DC
:100530000198B842BDDB00BFB4E72DE9F0430446A3
:100540000D4616461F46DDF81C90672C01DCD32DA6
:1005500001DDBDE8F08327B9A019401E672800DD42
:10056000F7E7012F04D1A819401ED32800DDF0E7DA
:100570004FF0000813E04A462946204600F014F8E0
:1005800017B1012F06D102E0601CC4B202E0681C62
:10059000C5B200BF00BF08F1010000F0FF08B04580
:1005A000E9DB00BFD5E70000F0B503460C46154671
:1005B000672B01DCD32C00DDF0BDDE1703EB567694
:1005C00004EB840707EBC40707EBE606B0B2DE17BF
:1005D00003EB5676F610A3EBC606C6F10706F1B29A
:1005E00025B1012D11D0022D2DD11DE0184A125C2C
:1005F00001268E40B243164E3254164A125C012632
:100600008E403243134E32541EE0114A125C0126D2
:100610008E40B2430E4E32540E4A165C01228A407E
:1006200096430C4A16540FE0094A125C01268E408C
:100630003243074E3254074A125C01268E40B243C1
:10064000044E325400E0B7E700BF00BFB4E700003B
:10065000680000202C0B00202DE9F84F06460C46C0
:1006600017461D46DDE90B8BDDF828A0672E09DC57
:10067000D32C07DCF019401E672803DC6019401EEC
:10068000D32801DDBDE8F88F00233A4621463046E5
:10069000CDF80080FFF751FF6019401EC1B2002362
:1006A0003A463046CDF80080FFF747FFA81EC2B299
:1006B000601CC1B201233046CDF80080FFF73DFF3A
:1006C000AB1EDAB2631CD9B2F3195B1ED8B2012398
:1006D000CDF80080FFF731FFBAF1000F17D1601C91
:1006E000C4B24FF000090FE0B91ECAB2711CC8B203
:1006F00000232146CDF800B0FFF71FFF601CC4B2F5
:1007000009F1010000F0FF09A81E4845ECDC00BF1C
:10071000B8E7000010B501220821164800F0EAFAF7
:10072000052000F03BF900220821124800F0E2FA0F
:100730000A2000F033F9012208210E4800F0DAFA0D
:10074000052000F02BF9002000F008F90E2000F041
:10075000C9F8052000F022F9E52000F0FFF8192083
:1007600000F0C0F8E02000F0F9F8022000F0BAF83C
:1007700010BD00000008014010B5102000F0EEF898
:1007800040F6C421054800F0BFF8132000F0E6F859
:1007900040F6C421024800F0B7F810BD6800002000
:1007A0002C0B002001B500BF054800F0B3FE032864
:1007B000FAD0FF2301226946014800F049FF08BD35
:1007C0001000002010B500F07FF8042000F0C6F8FB
:1007D00000F07AF8122000F0C1F800F075F810BDB2
:1007E0002DE9FE4F0446884615469946A5F120009E
:1007F000C5B2A246CDF80880B9F1000F34D1082661
:100800001020019000272BE0194800EB051010F88C
:1008100007B00020009019E00BF0800028B150468E
:100820000C9A0299FFF7C0FE04E050460D9A029917
:10083000FFF7BAFE4FEA4B604FEA106B0AF1010076
:1008400000F0FF0A0098401CC0B200900098B0422F
:10085000E2DBA2460298401CC0B20290781CC7B2EC
:1008600001988742D0DB00BF00BF3046BDE8FE8F55
:1008700029CB00082DE9FC4305460E4614461F46C9
:10088000DDE9098914E020787E280DDC2078202815
:100890000ADBCDE9008922783B4631462846FFF73E
:1008A0009FFF2844C5B202E0207800B901E0641C33
:1008B000E9E700BF2846BDE8FC8310B5022000F040
:1008C0004DF800F001F810BD10B502E0642000F012
:1008D00065F80221024800F005FA0028F6D010BDA4
:1008E0000008014010B5044600221021054800F020
:1008F00001FA2046FFF756FF01221021014800F0BF
:10090000F9F910BD0008014070B504460D460026F7
:1009100000221021104800F0EDF9012204210E48B8
:1009200000F0E8F9012D03D12078FFF73BFF0CE040
:100930002E4608E02078FFF735FF6078FFF732FF9A
:10094000761EA41C761E002EF4D10122102102482E
:1009500000F0D0F970BD00000008014010B5044659
:10096000002210210A4800F0C5F90022042108489D
:1009700000F0C0F92046FFF715FF012204210448CA
:1009800000F0B8F901221021014800F0B3F910BDC0
:100990000008014072B600BFFEE7000070B50446D3
:1009A00000F0AEF906462546681C10B104480078F0
:1009B000054400BF00F0A4F9801BA842FAD370BD23
:1009C000080000202DE9F8470346002294466EE116
:1009D0004FF0010808FA02F4D1F8008008EA040098
:1009E000A0427DD1DFF8DCA2D1F80480A8EB0A098F
:1009F000D0453AD014DCB8F1030F50D009DCB8F17F
:100A0000000F31D0B8F1010F1CD0B8F1020F49D15D
:100A100020E0B8F1110F18D0B8F1120F42D11EE04A
:100A2000B9F5881F25D006DCB9F5803F20D0B9F58F
:100A3000801F37D11AE0B9F5001F18D0B9F5041F8F
:100A400030D117E0D1F80CC02DE0D1F80C8008F1BE
:100A5000040C28E0D1F80C8008F1080C23E0D1F850
:100A60000C8008F10C0C1EE000BF00BF00BF00BFEF
:100A700000BF00BFD1F80880B8F1000F02D14FF0DD
:100A8000040C0BE0D1F80880B8F1010F03D14FF04E
:100A9000080C1C6102E04FF0080C5C6103E04FF0B1
:100AA000000C00E000BF00BFFF2801D8984601E01D
:100AB00003F104084646FF2802D84FEA820803E003
:100AC000A2F108084FEA88084746D6F800804FF0A0
:100AD0000F0909FA07F928EA09080CFA07F900E0F2
:100AE00088E048EA0908C6F80080D1F8048008F0D8
:100AF0008058B8F1805F7DD100BFDFF8CC81D8F895
:100B0000188048F00108DFF8C091C9F81880C8467D
:100B1000D8F8188008F00108CDF8008000BF00BFA9
:100B20004FEAB9384FEA920958F829504FEA8278CB
:100B30004FEA18794FF00F0808FA09F825EA080576
:100B4000DFF88881434502D14FF0000816E0DFF856
:100B50008081434502D14FF001080FE0DFF8748136
:100B6000434502D14FF0020808E0DFF86C814345AD
:100B700002D14FF0030801E04FF004084FEA8279F8
:100B80004FEA197908FA09F848EA0505DFF84C81B7
:100B90004FEA920948F82950D1F8048008F48038C7
:100BA000B8F5803F0AD1DFF83881D8F8008048EAEC
:100BB0000008DFF82C91C9F8008009E0DFF82081F7
:100BC000D8F8008028EA0008DFF81491C9F80080FE
:100BD000D1F8048008F40038B8F5003F10D1DFF8F0
:100BE000008108F10408D8F8008048EA0008DFF81E
:100BF000F09000E05AE009F10409C9F800800DE026
:100C0000DFF8DC8008F10408D8F8008028EA000842
:100C1000DFF8CC9009F10409C9F80080D1F804800C
:100C200008F48018B8F5801F0ED1DFF8B48008F101
:100C30000808D8F8008048EA0008DFF8A49009F115
:100C40000809C9F800800DE0DFF8948008F1080871
:100C5000D8F8008028EA0008DFF8849009F1080934
:100C6000C9F80080D1F8048008F40018B8F5001F16
:100C70000ED1DFF86C8008F10C08D8F8008048EA43
:100C80000008DFF85C9009F10C09C9F800800DE05C
:100C9000DFF84C8008F10C08D8F8008028EA00083A
:100CA000DFF83C9009F10C09C9F80080521CD1F81A
:100CB000008028FA02F8B8F1000F7FF489AEBDE891
:100CC000F8870000000011100010024000080140E9
:100CD000000C0140001001400014014008000140D8
:100CE00000040140024693680B400BB1012000E074
:100CF000002070470AB1016101E00B0403617047F5
:100D000001480068704700000000002003480068A8
:100D10000349097808440149086070470000002031
:100D20000800002010B50848006840F0100006498F
:100D30000860032000F098F80F2000F007F800F09A
:100D40002BF8002010BD00000020024070B50446C2
:100D50000E4800784FF47A71B1FBF0F00C49096845
:100D6000B1FBF0F5284600F04AFD08B1012070BD46
:100D7000102C07D200222146501E00F037F80548FB
:100D8000046001E00120F2E70020F0E70800002005
:100D90000C0000200400002008B500BF1148806945
:100DA00040F001000F4988610846806900F00100A9
:100DB000009000BF00BF00BF0846C06940F08050EF
:100DC000C8610846C06900F08050009000BF00BFB5
:100DD00000BF0549486820F0E06040F000704860BE
:100DE00000BF08BD00100240000001402DE9F05F87
:100DF00080460D461646002700F096FE0746394607
:100E00002A46334601F00700C0F1070ABAF1040F81
:100E100002D94FF0040A01E0C0F1070AD14600F1FF
:100E2000040ABAF1070F02D24FF0000A01E0A0F164
:100E3000030AD4464FF0010A0AFA09FAAAF1010A94
:100E40000AEA020A0AFA0CFA4FF0010B0BFA0CFB41
:100E5000ABF1010B0BEA030B4AEA0B0421464046B7
:100E600000F06AFEBDE8F09F00BF00F00702064BED
:100E700019684FF6FF031940044B0B4343EA022164
:100E8000014B196000BF70470CED00E00000FA054F
:100E900070B504460D460CB9012070BD5A48006873
:100EA00000F00700A8420ED25748006820F0070063
:100EB0002843554908600846006800F00700A8422A
:100EC00001D00120E9E7207800F0020002281DD1BE
:100ED000207800F00400042805D14C48406840F414
:100EE000E0604A494860207800F00800082805D1F1
:100EF0004648406840F46050444948604348406870
:100F000020F0F000A168084340494860207800F0D4
:100F1000010078B36068012806D13C48006800F4FD
:100F2000003090B90120B8E76068022806D1374840
:100F3000006800F0007040B90120AEE73348006857
:100F400000F0020008B90120A7E73048406820F00F
:100F50000300616808432D494860FFF7D1FE06464B
:100F600009E0FFF7CDFE801B41F28831884202D9AB
:100F7000032092E707E02548406800F00C00616814
:100F8000B0EB810FEDD12048006800F00700A842C7
:100F90000ED91D48006820F0070028431A49086050
:100FA0000846006800F00700A84201D0012074E75D
:100FB000207800F00400042807D11448406820F489
:100FC000E060E168084311494860207800F00800BB
:100FD000082808D10D48406820F46050216940EA93
:100FE000C1000A49486000F019F808494968C1F38E
:100FF0000311074A515CC84006490860064800686A
:10100000FFF7A4FE002048E7002002400010024045
:1010100011CB00080C00002004000020F0B585B0C2
:101020000FF26C0C9CE8E01001A8A0E8E0101CA5F1
:101030002D68009500210022002300240020194D76
:10104000696801F00C05F5B1042D02D0082D19D105
:1010500001E0154819E001ADC1F38346AC5D01F430
:10106000803555B10F4D6D68C5F340451DF805201D
:101070000D4D6543B5FBF2F302E00C4D04FB05F3A7
:10108000184602E000BF084800BF00BF05B0F0BD31
:1010900002030405060708090A0B0C0D0E0F1010B9
:1010A000010200000010024000127A0000093D0019
:1010B000F8B504460CB90120F8BD207800F0010015
:1010C000002878D0F848406800F00C0004280CD0C4
:1010D000F548406800F00C00082811D1F24840683B
:1010E00000F48030B0F5803F0AD1EF48006800F48A
:1010F000003000285FD0606800285CD10120DBE769
:1011000000BF6068B0F5803F06D1E748006840F452
:101110008030E549086028E0606858B9E248006816
:1011200020F48030E04908600846006820F4802000
:1011300008601AE06068B0F5A02F0BD1DA480068AB
:1011400040F48020D84908600846006840F48030A8
:1011500008600AE0D448006820F48030D249086072
:101160000846006820F48020086000BF606888B1ED
:10117000FFF7C6FD054606E0FFF7C2FD401B6428E9
:1011800001D9032098E7C848006800F4003000281F
:10119000F2D010E0FFF7B4FD054606E0FFF7B0FD22
:1011A000401B642801D9032086E7BF48006800F48B
:1011B00000300028F2D1207800F00200022857D138
:1011C000B948406800F00C0050B1B748406800F0E2
:1011D0000C00082818D1B448406800F4803098B951
:1011E000B148006800F0020020B12069012801D058
:1011F000012061E7AC48006820F0F800616940EA2E
:10120000C100A949086033E02069E8B10120A7497D
:101210000860FFF775FD054606E0FFF771FD401B0E
:10122000022801D9032047E79F48006800F0020028
:101230000028F2D09C48006820F0F800616940EA7C
:10124000C1009949086013E0002098490860FFF741
:1012500057FD054606E0FFF753FD401B022801D964
:10126000032029E79048006800F002000028F2D12E
:10127000207800F0080008282DD1A069B8B101201D
:101280008B490860FFF73CFD054606E0FFF738FD97
:10129000401B022801D903200EE78348406A00F072
:1012A00002000028F2D0012000F06EFB13E00020C5
:1012B0007F490860FFF724FD054606E0FFF720FDA3
:1012C000401B022801D90320F6E67748406A00F067
:1012D00002000028F2D1207800F00400042873D125
:1012E00000277148C06900F0805070B900BF6E4897
:1012F000C06940F080506C49C8610846C06900F080
:101300008050009000BF00BF01276A48006800F4C9
:101310008070B0B96748006840F480706549086023
:10132000FFF7EEFC054606E0FFF7EAFC401B6428E9
:1013300001D90320C0E65F48006800F480700028EF
:10134000F2D000BFE068012806D15748006A40F09B
:1013500001005549086227E0E06858B95248006A20
:1013600020F00100504908620846006A20F004009D
:10137000086219E0E06805280BD14B48006A40F08C
:101380000400494908620846006A40F0010008620A
:101390000AE04548006A20F0010043490862084617
:1013A000006A20F00400086200BFE068A0B1FFF707
:1013B000A7FC054609E0FFF7A3FC401B41F288317A
:1013C000884202D9032077E622E03748006A00F01D
:1013D00002000028EFD012E0FFF792FC054608E07B
:1013E000FFF78EFC401B41F28831884201D903206F
:1013F00062E62D48006A00F002000028F0D1012FBB
:1014000005D12948C06920F080502749C86100BF34
:10141000E069C8B32448406800F00C00082860D098
:10142000E069022848D1002020490866FFF768FCDF
:10143000054606E0FFF764FC401B022801D90320A3
:101440003AE61948006800F000700028F2D1206ADE
:10145000B0F5803F07D11448406820F40030A168FF
:10146000084311494860D4E9080108430E49496816
:1014700021F4741108430C49486001200B490866A7
:10148000FFF73EFC054607E03DE0FFF739FC401B57
:10149000022801D903200FE60348006800F000701D
:1014A0000028F2D02FE0000000100240000042426D
:1014B0008004424200700040002014490866FFF793
:1014C0001FFC054606E0FFF71BFC401B022801D964
:1014D0000320F1E50E48006800F000700028F2D10A
:1014E00011E0E069012800D1E6E50948466806F404
:1014F0008031206A814204D106F47011606A814211
:1015000001D00120D8E50020D6E5000000004242CD
:1015100000100240014691F85100704710B5044692
:101520000CB9012010BD606A38B96068B0F5827FDF
:1015300000D105E00021E16102E00021216161614B
:101540000021A16294F8510028B9002084F85000CD
:10155000204600F043F8022084F85100206800681B
:1015600020F0400021680860A08800F48270218982
:1015700001F404410843A18901F400610843217C7E
:1015800001F002010843217D01F001010843218B94
:1015900001F400710843217F01F038010843202144
:1015A000095D01F080010843218D01F400510843D9
:1015B000216808600421A06901EA104021684860A0
:1015C0002068C06920F400602168C861002060655F
:1015D000012084F851000020A4E7000010B586B077
:1015E000044600200290039004900590154920685D
:1015F000884224D100BF1448806940F480501249C9
:1016000088610846806900F48050019000BF00BFE7
:1016100000BF0846806940F0040088610846806980
:1016200000F00400019000BF00BFA0200290022043
:1016300003900320059002A90448FFF7C3F906B000
:1016400010BD0000003001400010024000080140C1
:101650002DE9F84F0446884616461D464FF0000A0D
:1016600000BF94F85000012802D10220BDE8F88F95
:10167000012084F8500000BFFFF742FB0746B14647
:1016800094F85100012802D04FF0020AADE0B8F101
:10169000000F00D016B94FF0010AA6E0032084F82D
:1016A000510000206065C4F83080A686E686A063FD
:1016B000A087E08760642064A068B0F5004F0BD17C
:1016C0002068006820F040002168086020680068F9
:1016D00040F48040216808602068006800F0400005
:1016E000402805D02068006840F04000216808606C
:1016F000E068B0F5006F2FD1606810B1B9F1010F4B
:1017000009D1206B00882168C860206B801C206391
:10171000E08E401EE0861BE02068806800F002003A
:1017200002280AD1206B00882168C860206B801CC9
:101730002063E08E401EE0860AE0FFF7E1FAC01B5E
:10174000A84201D3681C00B915B94FF0030A4CE058
:10175000E08E0028E0D12EE0606810B1B9F1010FF1
:1017600009D1206B007821680873206B401C20632E
:10177000E08E401EE0861BE02068806800F00200DA
:1017800002280AD1206B007821680873206B401C66
:101790002063E08E401EE0860AE0FFF7B1FAC01B2E
:1017A000A84201D3681C00B915B94FF0030A1CE028
:1017B000E08E0028E0D13A462946204600F0F8F8AD
:1017C00008B120206065A06850B900BF00200090DB
:1017D0002068C068009020688068009000BF00BF4B
:1017E000606D08B14FF0010A00BF012084F851007C
:1017F00000BF002084F8500000BF504636E770B5A7
:1018000004462546681EB0F1807F01D301200FE019
:10181000681E4FF0E02148610F214FF0FF3000F0CB
:101820008BF900204FF0E02188610720086100203B
:1018300070BD00BFFEE7000000B585B0002001903C
:1018400002900390049000BF3748806940F0100078
:10185000354988610846806900F01000009000BF9B
:1018600000BF00BF0846806940F02000886108463C
:10187000806900F02000009000BF00BF00BF084654
:10188000806940F0040088610846806900F0040027
:10189000009000BF00BF00BF0846806940F008000C
:1018A00088610846806900F00800009000BF00BF12
:1018B00000220C211D48FFF71DFA012210211B48B0
:1018C000FFF718FA4FF4604001900320029001A93D
:1018D0001748FFF777F849F641700190032002900E
:1018E00001A91248FFF76EF8022001900020029033
:1018F000039001A90D48FFF765F81C200190012015
:101900000290002003900220049001A90748FFF7ED
:1019100059F84FF6FF7001900320029001A9054885
:10192000FFF750F805B000BD00100240000801406C
:1019300000100140000C014010B50E480E4908602F
:101940004FF48270486000210B488160C1600161E2
:1019500041614FF4007181611821C1610021016270
:10196000416281620A21C162FFF7D8FD08B1FFF729
:1019700011F810BD003001401000002000BFFEE74C
:1019800000BFFEE77047000008B508490968C908AC
:101990004FF47A72B1FBF2F14143009100BF00BFF6
:1019A00000994A1E00920029F9D108BD0C000020C0
:1019B000F8B504460D4616462B46002280212046E7
:1019C000009600F009F828B1606D40F020006065D5
:1019D0000320F8BD0020FCE72DE9F84F04460D4632
:1019E00090461E46DDF82890FFF78AF9A0EB090023
:1019F000371AFFF785F982462C480068C0F3CB30D0
:101A00007843009045E0701C002842D0FFF778F939
:101A1000A0EB0A00B84200D2A7BB2068406820F0C3
:101A2000E000216848606068B0F5827F0DD1A06851
:101A3000B0F5004F03D0A068B0F5806F05D12068E5
:101A4000006820F0400021680860A06AB0F5005FDF
:101A50000DD100BF2068006820F4005021680860A4
:101A60002068006840F400502168086000BF012031
:101A700084F8510000BF002084F8500000BF03200C
:101A8000BDE8F88FFFE7009800B900270098401ED6
:101A90000090206880682840A84201D1012000E021
:101AA00000204045AFD10020EAE700000C000020F4
:101AB000704710B5FFF72AF910BD00B58FB0282187
:101AC00005A8FEF781FB14216846FEF77DFB012087
:101AD0000590000406904000079001200990022024
:101AE0000C90C1030D914FF460110E9105A8FFF702
:101AF000DFFA08B1FEF74EFF0F20009002200190A0
:101B0000002002904FF48060039000200490022196
:101B10006846FFF7BDF908B1FEF73CFF0FB000BD06
:101B2000704700BFFEE7000002480068C0F30220D3
:101B3000704700000CED00E010B5002804DB0A0738
:101B4000130E054A135406E00A07140E034A00F068
:101B50000F031B1FD45410BD00E400E018ED00E09B
:101B60000EB5FFF7DFF8FFF7A8FFFFF765FEFFF7F9
:101B7000E3FEFEF7CFFD4348D42368220021009006
:101B80000846FEF77BFCFEF7F7FDFEF71BFEFEF7AF
:101B900094FE40F6B830FEF701FF0120FEF77AFB15
:101BA000002211461046FEF7FFFC022000230A2205
:101BB000014600901846FEF7C0FC022001230A22CD
:101BC000042100900020FEF7B8FC00200221CDE99E
:101BD00000010A231A4610210290FEF73DFD002065
:101BE000022101220A23CDE9002102901A46102188
:101BF0001420FEF731FD01200221002322A2CDE9AD
:101C000000101E211846FEF735FE2248012102224F
:101C10002923CDE900210290682232210020FEF71D
:101C2000A3FB0120022100231BA2CDE900106421A7
:101C30001846FEF71FFE01200221002319A2CDE95C
:101C4000001074211420FEF715FE0120022100234C
:101C500017A2CDE9001084212C20FEF70BFE0120F5
:101C60000221002313A2CDE9001094212820FEF7C1
:101C700001FEFEF781FDFEF7A5FDFEF71EFE00BF8B
:101C8000FEE70000D11E0008464F4E542054455335
:101C900054000000BC1C00085549443A3535373221
:101CA0003338300044657369676E65640000000076
:101CB00042790000737A6F6E67656E000000000065
:101CC000000000000000000000000000080000000C
:101CD0000000000000000000001C000000000000E8
:101CE00000000000000038000000000000000000BC
:101CF0000100003000000000000000000001C000F2
:101D000060001C0000003C00000001F000E0007CCE
:101D10000000007C000000007C01C0003C0000804E
:101D200078000180001F0180003C0003C0780003A0
:101D30008000078380003C0001C07800038000031E
:101D4000E700083C0001C07C0003807FFFFFFFFC30
:101D50003C0001C03C000380600000000C3C000916
:101D6000C03C001380600000000C1C002DCB3C0028
:101D7000799E67FFFFFFCC1C002DCB3C00799E6F46
:101D8000FFFFFFCC1C003CCB3C0069DE6C00000078
:101D9000CC1E003CCB3C0029DE6C000000CC1E00B9
:101DA00000C01C0001C06C000000CC1E001CC01C48
:101DB0000039C06C000180CC1E001CEF1C003DCE21
:101DC0006C0E01E0CC0E001CEF1C003DCE6C7C00C4
:101DD000F0CC0FE01EEF1FC01CCE6CF0003CCC0F0F
:101DE000FE1EE71FFE1CCE6CC0000ECC0FFF8EE760
:101DF0001FFF9CCE6C000000CC0FBFEE671FBFDC46
:101E0000CE6C021080CC0F87EE671F8FDCCE6C0685
:101E100038C0CC0FC7EE670F8FCCCE6C073980CCA3
:101E20000FCFCE670F9F8EEE6C03FF80CC0FFF8627
:101E3000670FBF0E4E6C01EF00CC07FE04070FFECC
:101E4000080E6C000000CC07F800000FF000006CDA
:101E5000000000CC04000000080000006FFFFFFF3E
:101E6000CC000000000000000067FFFFFFCC000076
:101E7000000000000000600000000C0000000000F6
:101E80000000007FFFFFFFFC0000010A50A80000D7
:101E90007FFFFFFFFC155551C21C20231406600074
:101EA0000CC0155551AA54A854AA07E0000F800E83
:101EB00038E1AA54A844AA03C00007800A28A4CA8B
:101EC0005CA9732A00000000000000000000000070
:101ED00000FFFFFFFFFFFFFFFFFFFFFFFFFFFFFF11
:101EE000FFFFFFFFFFFFFFFFFFFFFFFFFFFFFFFF02
:101EF000FFFFFFFFFFFFFFFFFFFFFFFFFFFFFFFFF2
:101F0000FFFFFFFFFFFFFFFFFFFFFFFFFFFFFFFFE1
:101F1000FFFFFFFFFFFFFFFFFFFFFFFFFFFFFFFFD1
:101F2000FFFFFFFFFFFFFFFFFFFFFFFFFFFFFFFFC1
:101F3000FFFFFFFFFFFFFFFFFFFFFFFFFFFFFFFFB1
:101F4000FFFFFFFFFFFFFFFFFFFFFFFFFFFFFFFFA1
:101F5000FFFFFFFFFFFFFFFFFFFFFFFFFFFFFFFF91
:101F6000FFFFFFFFFFFFFFFFFFFFFFFFFFFFFFFF81
:101F7000FFFFFFFFFFFFFFFFFFFFFFFFFFFFFFFF71
:101F8000FFFFFFFFFFFFFFFFFFFFFFFFFFFFFFFF61
:101F9000FFFFFFFFFFFFFFFFFFFFFFFFFFFFFFFF51
:101FA000FFFFFFFFFFFFFFFFFFFFFFFFFFFFFFFF41
:101FB000FFFFFFFFFFFFFFFFFFFFFFFFFFFFFFFF31
:101FC000FFFFFFFFFFFFFFFFFFFFFFFFFFFFFFFF21
:101FD000FFFFFFFFFFFFFFFFFFFFFFFFFFFFFFFF11
:101FE000FFFFFFFFFFFFFFFFFFFFFFFFFFFFFFFF01
:101FF000FFFFFFFFFFFFFFFFFFFFFFFFFFFFFFFFF1
:10200000FFFFFFFFFFFFFFFFFFFFFFFFFFFFFFFFE0
:10201000FFFFFFFFFFFFFFFFFFFFFFFFFFFFFFFFD0
:10202000FFFFFFFFFFFFFFFFFFFFFFFFFFFFFFFFC0
:10203000FFFFFFFFFFFFFFFFFFFFFFFFFFFFFFFFB0
:10204000FFFFFFFFFFFFFFFFFFFFFFFFFFFFFFFFA0
:10205000FFFFFFFFFFFFFFFFFFFFFFFFFFFFFFFF90
:10206000FFFFFFFFFFFFFFFFFFFFFFFFFFFFFFFF80
:10207000FFFFFFF800FFFFFFFFF800FFFFF800FF82
:10208000FFF800FFFFF800FFFFF800FFFFF800FF78
:10209000FFF800FFFFF800FFFFF800FFFFF800FF68
:1020A000FFF800FFFFF800FFFFF800FFFFF800FF58
:1020B000FFF800FFFFF800FFFFF800FFFFF800FF48
:1022E000FFFFFFF800FFFF0000FFFFF800FFFF0007
:1022F00000FFFFF800FFFF0000FFFFF800FFFF00F6
:1023000000FFFFF800FFFF0000FFFFF800FFFF00E5
:1023100000FFFFF800FFFF0000FFFFF800FFFF00D5
:1023200000FFFFF800FFFF0000FFFFF800FFFF00C5
:1023300000FFFFF800FFFF0000FFFFF800FFFF00B5
:1023400000FFFFF800FFFF0000FFFFF800FFFF00A5
:1023500000FFFFF800FFFF0000FFFFF800FFFF0095
:1023600000FFFFF800FFFF0000FFFFF800FFFF0085
:1023700000FFFFF800FFFF0000FFFFF800FFFF0075
:1023800000FFFFF800FFFF0000FFFFF800FFFF0065
:1023900000FFFFF800FFFF0000FFFFF800FFFF0055
:1023A00000FFFFF800FFFF0000FFFFF800FFFFFF46
:1023B000FFF800F800F800F800F800F800F800F85E
:1023C00000F800F800F800F800F800F800F800F84D
:1023D00000F800F800F800F800F800F800F800F83D
:1023E00000F800F800F800F800F800F800F800F82D
:1023F00000F800F800F800F800F800F800F800F81D
:1024000000F800F800F800F800F800F800F800F80C
:1024100000F800F800F800F800F800F800F800F8FC
:1024200000F800F800F800F800F800F800F800F8EC
:1024300000F800F800F800F800F800F800F800F8DC
:1024400000F800F800F800F800F800F800F800F8CC
:1024500000F800F800F800F800F800F800F800F8BC
:1024600000F800F800F800F800F800F800F800F8AC
:1024700000F800F800F800F800F8000000F800F894
:1024800000F800F8000000F800F8000000F800F87C
:1024900000F8000000F800F800F8000000F800F86C
:1024A00000F8000000F800F800F8000000F800F85C
:1024B00000F8000000F800F800F8000000F800F84C
:1024C00000F8000000F800F800F8000000F800F83C
:1024D00000F8000000F800F800F8000000F800F82C
:1024E00000F8000000F800F800F8000000F800F81C
:1024F00000F8000000F800F800F8000000F800F80C
:1025000000F8000000F800F800F8000000F800F8FB
:1025100000F8000000F800F800F8000000F800F8EB
:1025200000F8000000F800F800F8000000F800F8DB
:1025300000F8000000F800F800F8000000F800F8CB
:1025400000F8000000F800F800F800F800F800F8C3
:1025500000F800F800F800F800F800F800F800F8BB
:1025600000F800F800F800F800F800F800F800F8AB
:1025700000F800F800F800F800F800F800F800F89B
:1025800000F800F800F800F800F800F800F800F88B
:1025900000F800F800F800F800F800F800F800F87B
:1025A00000F800F800F800F800F800F800F800F86B
:1025B00000F800F800F800F800F800F800F800F85B
:1025C00000F800F800F800F800F800F800F800F84B
:1025D00000F800F800F800F800F800F800F800F83B
:1025E00000F800F800F800F800F800F800F800F82B
:1025F00000F800F800F800F800F800F800F800F81B
:1026000000F800F800F800F800F800F800F800F80A
:1026100000F800F800F800F800F800F800F800F8FA
:1026200000F800F800F800F800F800F800F80000E2
:1026300000F800F800F8000000F800F800F80000CA
:1026400000F800F800F8000000F800F800F80000BA
:1026500000F800F800F8000000F800F800F80000AA
:1026600000F800F800F8000000F800F800F800009A
:1026700000F800F800F8000000F800F800F800008A
:1026800000F800F800F8000000F800F800F800007A
:1026900000F800F800F8000000F800F800F800006A
:1026A00000F800F800F8000000F800F800F800005A
:1026B00000F800F800F8000000F800F800F800004A
:1026C00000F800F800F8000000F800F800F800003A
:1026D00000F800F800F8000000F800F800F800002A
:1026E00000F800F800F8000000F800F8000000F81A
:1026F00000F8000000F800F8000000F800F800FF03
:10270000FFF800F800F800FFFFF800F800F800FFFD
:10271000FFF800F800F800FFFFF800F800F800FFED
:10272000FFF800F800F800FFFFF800F800F800FFDD
:10273000FFF800F800F800FFFFF800F800F800FFCD
:10274000FFF800F800F800FFFFF800F800F800FFBD
:10275000FFF800F800F800FFFFF800F800F800FFAD
:10276000FFF800F800F800FFFFF800F800F800FF9D
:10277000FFF800F800F800FFFFF800F800F800FF8D
:10278000FFF800F800F800FFFFF800F800F800FF7D
:10279000FFF800F800F800FFFFF800F800F800FF6D
:1027A000FFF800F800F800FFFFF800F800F800FF5D
:1027B000FFF800F800F800FFFFF800F800F800F854
:1027C00000F800F800FFFFF800F800F800F800F843
:1027D00000F8000000F800F800F8000000F800F829
:1027E00000F8000000F800F800F8000000F800F819
:1027F00000F8000000F800F800F8000000F800F809
:1028000000F8000000F800F800F8000000F800F8F8
:1028100000F8000000F800F800F8000000F800F8E8
:1028200000F8000000F800F800F8000000F800F8D8
:1028300000F8000000F800F800F8000000F800F8C8
:1028400000F8000000F800F800F8000000F800F8B8
:1028500000F8000000F800F800F8000000F800F8A8
:1028600000F8000000F800F800F8000000F800F898
:1028700000F8000000F800F800F8000000F800F888
:1028800000F8000000F800F800F800F800F800F880
:1028900000F800F800F800F800F800F8000000F870
:1028A00000F800F800F800F800F800F800F800F868
:1028B00000F800F800F800F800F800F800F800F858
:1028C00000F800F800F800F800F800F800F800F848
:1028D00000F800F800F800F800F800F800F800F838
:1028E00000F800F800F800F800F800F800F800F828
:1028F00000F800F800F800F800F800F800F800F818
:1029000000F800F800F800F800F800F800F800F807
:1029100000F800F800F800F800F800F800F800F8F7
:1029200000F800F800F800F800F800F800F800F8E7
:1029300000F800F800F800F800F800F800F800F8D7
:1029400000F800F800F800F800F800F800F800F8C7
:1029500000F800F800F800F800F8000000F800F8AF
:1029600000F800F8000000F800F800FFFFF800F899
:1029700000F800F800F8000000F800F800F8000087
:1029800000F800F800F8000000F800F800F8000077
:1029900000F800F800F8000000F800F800F8000067
:1029A00000F800F800F8000000F800F800F8000057
:1029B00000F800F800F8000000F800F800F8000047
:1029C00000F800F800F8000000F800F800F8000037
:1029D00000F800F800F8000000F800F800F8000027
:1029E00000F800F800F8000000F800F800F8000017
:1029F00000F800F800F8000000F800F800F8000007
:102A000000F800F800F8000000F800F800F80000F6
:102A100000F800F800F8000000F800F800F80000E6
:102A200000F800F800F8000000F800F800FFFFF8D8
:102A300000F800F800F800F8000000F800F800F8CE
:102A4000000000F800FFFFF800F800F800FFFFF8B2
:102A500000F800F800FFFFF800F800F800FFFFF8AA
:102A600000F800F800FFFFF800F800F800FFFFF89A
:102A700000F800F800FFFFF800F800F800FFFFF88A
:102A800000F800F800FFFFF800F800F800FFFFF87A
:102A900000F800F800FFFFF800F800F800FFFFF86A
:102AA00000F800F800FFFFF800F800F800FFFFF85A
:102AB00000F800F800FFFFF800F800F800FFFFF84A
:102AC00000F800F800FFFFF800F800F800FFFFF83A
:102AD00000F800F800FFFFF800F800F800FFFFF82A
:102AE00000F800F800FFFFF800F800F800FFFFF81A
:102AF00000F800F800FFFFF800F800F800F800F810
:102B000000F800F800F800F800F800F800F800F805
:102B100000F800F800F800F800F8000000F800F8ED
:102B200000F8000000F800F800F8000000F800F8D5
:102B300000F8000000F800F800F8000000F800F8C5
:102B400000F8000000F800F800F8000000F800F8B5
:102B500000F8000000F800F800F8000000F800F8A5
:102B600000F8000000F800F800F8000000F800F895
:102B700000F8000000F800F800F8000000F800F885
:102B800000F8000000F800F800F8000000F800F875
:102B900000F8000000F800F800F8000000F800F865
:102BA00000F8000000F800F800F8000000F800F855
:102BB00000F8000000F800F800F8000000F800F845
:102BC00000F8000000F800F800F800F8000000F835
:102BD00000F8000000FFFFF800F800F8000000F81F
:102BE00000F800F8000000F800F800F800F800F81D
:102BF00000F800F800F800F800F800F800F800F815
:102C000000F800F800F800F800F800F800F800F804
:102C100000F800F800F800F800F800F800F800F8F4
:102C200000F800F800F800F800F800F800F800F8E4
:102C300000F800F800F800F800F800F800F800F8D4
:102C400000F800F800F800F800F800F800F800F8C4
:102C500000F800F800F800F800F800F800F800F8B4
:102C600000F800F800F800F800F800F800F800F8A4
:102C700000F800F800F800F800F800F800F800F894
:102C800000F800F800F800F800F800F800F800F884
:102C900000F800F800F800F800F800F800F800F874
:102CA00000F800F800F800F800F800F800F800FF5D
:102CB000FFF800F800F800F800F800F800F800004D
:102CC00000F800F800F8000000F800F800F8000034
:102CD00000F800F800F8000000F800F800F8000024
:102CE00000F800F800F8000000F800F800F8000014
:102CF00000F800F800F8000000F800F800F8000004
:102D000000F800F800F8000000F800F800F80000F3
:102D100000F800F800F8000000F800F800F80000E3
:102D200000F800F800F8000000F800F800F80000D3
:102D300000F800F800F8000000F800F800F80000C3
:102D400000F800F800F8000000F800F800F80000B3
:102D500000F800F800F8000000F800F800F80000A3
:102D600000F800F800F8000000F800F800F800F89B
:102D700000F800F800F800F8000000F800F800F88B
:102D8000000000F800F800FFFF0000F800F800F86D
:102D900000FFFFF800F800F800FFFFF800F800F867
:102DA00000FFFFF800F800F800FFFFF800F800F857
:102DB00000FFFFF800F800F800FFFFF800F800F847
:102DC00000FFFFF800F800F800FFFFF800F800F837
:102DD00000FFFFF800F800F800FFFFF800F800F827
:102DE00000FFFFF800F800F800FFFFF800F800F817
:102DF00000FFFFF800F800F800FFFFF800F800F807
:102E000000FFFFF800F800F800FFFFF800F800F8F6
:102E100000FFFFF800F800F800FFFFF800F800F8E6
:102E200000FFFFF800F800F800FFFFF800F800F8D6
:102E300000FFFFF800F800F800FFFF0000F800F8BE
:102E400000F800F800F800F800F800F800F800F8C2
:102E500000F800F800F800F800F800F800F800F8B2
:102E600000F8000000F800F800F8000000F800F892
:102E700000F8000000F800F800F8000000F800F882
:102E800000F8000000F800F800F8000000F800F872
:102E900000F8000000F800F800F8000000F800F862
:102EA00000F8000000F800F800F8000000F800F852
:102EB00000F8000000F800F800F8000000F800F842
:102EC00000F8000000F800F800F8000000F800F832
:102ED00000F8000000F800F800F8000000F800F822
:102EE00000F8000000F800F800F8000000F800F812
:102EF00000F8000000F800F800F8000000F800F802
:102F000000F8000000F800F800F800F800F800F8F9
:102F100000F800F8000000F800FFFFF8000000F8DB
:102F200000F800F8000000F800F800F8000000F8D1
:102F300000F800F800F800F800F800F800F800F8D1
:102F400000F800F800F800F800F800F800F800F8C1
:102F500000F800F800F800F800F800F800F800F8B1
:102F600000F800F800F800F800F800F800F800F8A1
:102F700000F800F800F800F800F800F800F800F891
:102F800000F800F800F800F800F800F800F800F881
:102F900000F800F800F800F800F800F800F800F871
:102FA00000F800F800F800F800F800F800F800F861
:102FB00000F800F800F800F800F800F800F800F851
:102FC00000F800F800F800F800F800F800F800F841
:102FD00000F800F800F800F800F800F800F800F831
:102FE00000F800F800F800F800F800F800F800F821
:102FF00000F800FFFFF800F800F800F800FFFFF805
:1030000000F800F800F8000000F800F800F80000F0
:1030100000F800F800F8000000F800F800F80000E0
:1030200000F800F800F8000000F800F800F80000D0
:1030300000F800F800F8000000F800F800F80000C0
:1030400000F800F800F8000000F800F800F80000B0
:1030500000F800F800F8000000F800F800F80000A0
:1030600000F800F800F8000000F800F800F8000090
:1030700000F800F800F8000000F800F800F8000080
:1030800000F800F800F8000000F800F800F8000070
:1030900000F800F800F8000000F800F800F8000060
:1030A00000F800F800F8000000F800F8000000F850
:1030B00000F800F800F800F8000000F800F800F848
:1030C000000000F800F800F8000000F800F800F830
:1030D000000000F800F800F800FFFFF800F800F822
:1030E00000F800FFFFF800F800F800F800FFFFF814
:1030F00000F800F800F800F800F800FFFFF800F80A
:1031000000F800F800FFFFF800F800F800F800FFF2
:10311000FFF800F800F800F800FFFFF800F800F8EA
:1031200000F800FFFFF800F800F800F800FFFFF8D3
:1031300000F800F800FFFFF800F800F800FFFFF8C3
:1031400000F800F800FFFFF800F800F800FFFFF8B3
:1031500000F800F800FFFFF800F800F800FFFFF8A3
:1031600000F800F800FFFFF800F800F800F800FF92
:10317000FFF800F800F800F800FFFFF800F800F88A
:1031800000F800F8000000F800F800F800F800F877
:1031900000F800F800F800F800F800F800F800F86F
:1031A00000F800F800F800F800F8000000F800F857
:1031B00000F8000000F800F800F800FFFFF800F841
:1031C00000F8000000FFFFF800F800F8000000F829
:1031D00000F800F800F800F800F8000000F800F827
:1031E00000F8000000F800F800F8000000F800F80F
:1031F00000F8000000F800F800F8000000FFFFFFF2
:10320000FFF8000000F800F800F8000000F800F8EF
:1032100000F8000000F800F800F8000000F800F8DE
:1032200000F8000000F800F800F8000000F800F8CE
:1032300000F8000000F800F800F8000000F800F8BE
:1032400000F8000000F800F800F800F800F800F8B6
:1032500000F800F800FFFFF800F800F800FFFFF8A2
:1032600000F800F8000000F800F800F8000000F88E
:1032700000F800FFFF0000F800F800F800F800FF79
:10328000FFF800F800F8000000F800F8000000F86F
:1032900000F800F800F8000000F800FFFFF800F860
:1032A00000F800F8000000F800F800F800F800F856
:1032B00000F800F800F800F800F800F800F800F84E
:1032C00000F800F800F800F800F800F800FFFFFF31
:1032D000FFF800F800F800F800F800F800F800F82F
:1032E00000F800F800F800F800F800F800F800F81E
:1032F00000F800F800F800F800F800F800F800F80E
:1033000000F800F800F800F800F800F800F800F8FD
:1033100000F800F800F800F800F8000000F800F8E5
:1033200000F800F800F800F8000000F800F80000CD
:1033300000F800F800FFFFF800F800F800F800F8C7
:1033400000F800F800F800F800F800F800F80000B5
:1033500000F800F800F800F800F800F800FFFFF8A7
:1033600000F800FFFFF800F800FFFFF800F800F891
:10337000000000F800F800F800F800FFFFF8000077
:1033800000F800F800FFFF0000F800F800F800FF68
:10339000FF0000F800F800F800F800F800F800F866
:1033A00000F800F800F8000000F800F800F800004D
:1033B00000F800F800F8000000F800F800F800003D
:1033C00000F800F800F8000000F800F800F800002D
:1033D00000F800F800F8000000F800FFFFF8000017
:1033E00000F800F800FFFF0000F800F800F800F80F
:1033F00000F8000000F800F800F800F800F800F805
:1034000000F800F800F800F8000000F800FFFFF8EE
:10341000000000F800F800F8000000F800F800F8DC
:1034200000FFFFF800F800FFFFF800F800F80000C8
:1034300000F800F800F800F800F8000000F800F8C4
:1034400000FFFFF800F800F8000000F800F800F8AE
:1034500000F800F800F800F800F8000000F800F8A4
:1034600000F800F8000000FFFFF8000000F800F886
:10347000000000F800F800F800F800F800F800F884
:1034800000FFFFF800F800F800FFFFF800F800F870
:1034900000FFFFF800F800F800FFFFF800F800F860
:1034A00000F800FFFFF800F800F800F800F800F856
:1034B00000F800F800F800F800F800F800F800F84C
:1034C00000F800F800F800F800F800F800F800F83C
:1034D00000F8000000F800F800F800F800F800F824
:1034E00000F800F800F800F800F800F800F800F81C
:1034F00000F800F8000000F800F800F800F800F804
:1035000000F800FFFFF800F800F800F800F800FFEE
:10351000FFF800F800F800F800F800F800F800F8EC
:1035200000F8000000F800F800F800F800F800F8D3
:1035300000F800F800F800F800F800F800F800F8CB
:1035400000F800F800FFFFF800F8000000F800F8AD
:1035500000F8000000F800F800F8000000F800F89B
:1035600000F8000000F800F800F8000000F800F88B
:1035700000F8000000F800F800F8000000F800F87B
:1035800000F8000000F800F800F800F800FFFFF86D
:1035900000F800F800F8000000F800F8000000FF54
:1035A000FFF800F800F800F800F800F8000000F854
:1035B00000F800F8000000F800F800FFFFF8000035
:1035C00000F800F800F800F800FFFF0000F800F82D
:1035D00000F800F800F8000000F800FFFFF8000015
:1035E00000F800F8000000F800F800F8000000FF04
:1035F000FFF800F800F800F800F800F800F8000004
:1036000000F800F800F800F800F800F800F800F8FA
:1036100000F800F8000000F800F800FFFFF800F8DC
:1036200000F800F800F800F800F800F800F800F8DA
:1036300000F800F800F800F800F800F800F800F8CA
:1036400000F800F800F800F800F800F800F800FFB3
:10365000FFF800F800F800F800F800F8000000F8A3
:1036600000F800F800F800FFFFF800F800F800F894
:1036700000F800F800F8000000FFFFF800F800F87C
:1036800000FFFFF800F800F800FFFFF8000000F866
:1036900000F800F800F800F800F800F800F800F86A
:1036A00000FFFF0000F800F800FFFFF800F800F846
:1036B00000F800F800F800FFFFF800F800F800F844
:1036C00000F800F800F8000000FFFFF800F800F82C
:1036D00000F800F8000000F800F8000000FFFFF814
:1036E000000000F800F800F800F800F800F800000A
:1036F00000F800F800F8000000F800F800F80000FA
:1037000000F800F800F8000000F800F800F800FFEA
:10371000FF0000F800F800F800F800F800F80000DA
:1037200000F800F800F8000000F800F800F800F8D1
:1037300000F8000000F800F800F800F800F800F8C1
:10374000000000F800F800F800F800F800F800F8B1
:10375000000000F800FFFFF800F800F800FFFFF895
:1037600000F800FFFFF8000000F800F800F8000083
:1037700000F800F800F800F800F8000000F800F881
:1037800000F800F800F800F8000000F800F800F871
:10379000000000F800F800F800F8000000F800F859
:1037A00000F800F800FFFFF800F800F800F800F853
:1037B00000F800F800F800F8000000F800F800F841
:1037C00000F800F800FFFFF800F800F800F800FF2C
:1037D000FFF800F800F800F800F8000000F800F822
:1037E00000F800F800F800FFFF0000F800F800F80B
:1037F00000F800F800F800FFFFF800F800F800F803
:1038000000F800F800F800F8000000F800F800F8F0
:1038100000F800F800F800F800F8000000F800F8E0
:1038200000F800F800F8000000F800F800F800F8D0
:1038300000F8000000F800F800F800F800F800F8C0
:1038400000F800F800F800F800F800F800F800FFB1
:10385000FF0000F800F800F800F800F800F800F8A1
:1038600000F800F800F800F800F800F800F800FF91
:10387000FF0000F800F800F800F800F800F800F881
:1038800000F800F800F800F800F800F800F800F878
:1038900000F8000000F800F800F8000000F800F858
:1038A00000F8000000FFFFF800FFFFF800F800F844
:1038B00000F800F8000000F800F800F800F800F840
:1038C00000F8000000F800F800F8000000F800F828
:1038D00000F800F800F800F800F800F8000000F820
:1038E00000F800FFFF0000F800F800F800F800F80A
:1038F00000F800F800F800F800F800F8000000F800
:1039000000F800F800F800F800FFFF0000F800F8E9
:1039100000FFFFF800F8000000FFFFF800F800F8D3
:1039200000F800F8000000F800F800F8000000F8C7
:1039300000F800FFFF0000F800F800F800F800F8B9
:1039400000F800F800F800F8000000F800F80000A7
:1039500000F800FFFF0000F800F800FFFF0000F88B
:1039600000F800F800F800F800FFFFF800F800F891
:1039700000F800F800F800F800F800F800F800007F
:1039800000F800F800F800F800F800F8000000F86F
:1039900000F800F800F800F800F800F800F800F867
:1039A00000F800F800F800FFFFF800F800F800F851
:1039B00000F800F800F800F800F800F800F800003F
:1039C00000F800F800F800F800F800FFFFF800F831
:1039D00000F800F800F800F800F800F800F800FF20
:1039E000FF0000F800F800F800F800F8000000F808
:1039F00000F800FFFFF800F800F800FFFFF800F8FB
:103A000000F800F800F800F800F8000000F800F8EE
:103A100000F800F8000000F800F800F800F800F8DE
:103A200000F800F800F800F800F800F800F800F8D6
:103A300000F800F8000000F800F800F800F800FFB7
:103A4000FFF800F800F8000000F800F800F800F8AF
:103A500000F800F800F800F800F800F800FFFFF8A0
:103A600000F800F800F8000000F800F800FFFFF888
:103A700000F8000000F800F8000000F800FFFFF870
:103A8000000000F800F800F8000000F800F800FF5F
:103A9000FFF8000000F800F8000000F800FFFFF851
:103AA00000FFFFF800F8000000F800F800F800F848
:103AB00000F800F800F800F800F800F800F800F846
:103AC00000F800F800F800F8000000F800F800F82E
:103AD000000000F800F800F800FFFFF800F8000010
:103AE00000F800F800F800F800F800F800FFFFF810
:103AF00000F800F800F8000000F800F800F80000F6
:103B000000F800F800FFFFF800F8000000F800F8E7
:103B1000000000FFFFF800F800F800FFFFF800F8D1
:103B200000F8000000FFFFF8000000F800F800F8BF
:103B3000000000F800FFFFF800F8000000F800F8AF
:103B400000F800F800F800F800F800F800F800F8B5
:103B500000F800F800F800F800FFFFF800F800F89F
:103B600000F800FFFFF800F800F800F800F8000087
:103B700000F800F800FFFFF800F800F8000000F877
:103B800000F800FFFF0000F800F800FFFFF800F861
:103B9000000000F800F800F800F800F800F800F85D
:103BA00000F800F800F8000000F800F800F800F84D
:103BB00000F800FFFFF800F8000000F800F800002F
:103BC00000F800F800F800F800F800F800F800FF2E
:103BD000FFF800F800F800F800F800F800F800F826
:103BE00000F800F800F800F8000000F800F8000005
:103BF00000F800F800F800F800F800F800F800F805
:103C000000F800F800F800F800F800F800F800F8F4
:103C100000F800F800F800F800F800F8000000F8DC
:103C200000F800F8000000F800F800F8000000F8C4
:103C300000F800F800F800FFFFF800F800F800F8BE
:103C400000F8000000F800F800FFFFF800F800FF9F
:103C5000FFF800F800F800F800F8000000F800FF96
:103C6000FFF800FFFF0000F800F800F8000000F87F
:103C700000F800F800F800F800F800F800F800F884
:103C800000F8000000F800F800F800F800F800F86C
:103C900000F8000000F800FFFFF8000000F800F84E
:103CA00000F800F8000000FFFFF800F800FFFF0038
:103CB00000F800F800F800F800FFFFF800F800F83E
:103CC00000F800F800F800F800F800F8000000F82C
:103CD00000F800F8000000F800F800F800F800F81C
:103CE00000F800F8000000F800F800F800F800F80C
:103CF00000F800FFFFF800F800F800F800F800F8FE
:103D000000F8000000F800F8000000F800F800F8E3
:103D100000F800F800F800FFFF0000F800F800F8D5
:103D2000000000F800F800F800FFFFF800F800F8C5
:103D300000F800F800F800F800F800FFFFF800F8BD
:103D400000F800FFFF0000F800F800F8000000F89D
:103D500000F800F800F800F800FFFFF800F800F89D
:103D600000F800F800F800F800F800F800F800F893
:103D7000000000F800F800F800F8000000F800F873
:103D800000F800FFFF0000F800F800F800F800FF5E
:103D9000FFF800F8000000F800F800FFFFF800F856
:103DA00000F800F800F800F800F8000000F800F84B
:103DB00000F800F800F800F800FFFFF800F800F83D
:103DC000000000F800F800F8000000F800F800F823
:103DD00000F800F800F800FFFFF800FFFFF800000F
:103DE00000F800F800F800F800F800F800FFFFF80D
:103DF00000F800F800F8000000F800F800F800FFF4
:103E0000FFF800F800F800F800F800F800F80000EB
:103E100000F800F800F800F800F800F800FFFFF8DC
:103E200000F800F800F8000000F800F8000000F8C2
:103E300000F800F800F8000000F800F800F800F8BA
:103E400000F800F800FFFFF800F800F800F800F8AC
:103E500000F800F800F800F800F800F800F800009A
:103E600000F800F800F800F8000000F800F800FF83
:103E7000FF0000F800F800F800FFFFF800F800F875
:103E800000F800F800F8000000F800F8000000F862
:103E900000F800F800F800F800F800F800FFFF0054
:103EA00000F800F800FFFFF800F800F800F800F84C
:103EB00000FFFFF8000000F800F800F8000000F82C
:103EC00000F800F800F800F800FFFFF8000000F824
:103ED00000F8000000F800F8000000F800F800F812
:103EE00000F800F800F800F8000000F800F800F80A
:103EF000000000F800F800F800F800F800F800FFF3
:103F0000FFF8000000F800F800F800F8000000FFDB
:103F1000FFF800F800F8000000F800FFFFF800F8D4
:103F200000FFFFF800F800F8000000FFFFF800F8BD
:103F300000F800F800F800F800F800F800F800F8C1
:103F400000F800F800F8000000F800F800F800F8A9
:103F500000FFFFF800F800F800F800F800F800F89B
:103F600000F800F8000000F800F800F800F800F889
:103F700000F800F8000000F800F8000000FFFFF86B
:103F800000F800F800F800F800F800F800F800F871
:103F9000000000FFFFF800F800F800F800FFFFF84D
:103FA00000F800F800F800F800F800F800F800F851
:103FB00000F8000000F800F800F800F800F800F839
:103FC00000F800FFFFF800F800F800F800F800F82B
:103FD00000F800F800FFFFF800F800F800F800F81B
:103FE00000F800FFFFF800F800F800F8000000F803
:103FF00000F8000000F800FFFFF800F800F800F8F3
:1040000000F8000000FFFFF800F800F8000000F8DA
:1040100000F800F800F800F800F8000000F800F8D8
:1040200000F800F800F800F800F800F800FFFFF8CA
:1040300000F800F800FFFFF800F8000000F800F8B2
:1040400000F800F800F800F800F800F800F800F8B0
:10405000000000F800F800F8000000F800F800F890
:1040600000F800F800F8000000FFFFF800F800F882
:1040700000F800F800F800FFFFF800F8000000FF6B
:10408000FFF800F800F800FFFFF800F8000000F863
:1040900000F800F8000000F800F8000000F800F850
:1040A00000F800F800F800F8000000F800F800F848
:1040B000000000F800F800F800F800F800F800F838
:1040C00000F800F800F800F800F800F8000000F828
:1040D00000F800F800F800F800F800F800F800F820
:1040E00000F8000000FFFFF800F800F800F800F802
:1040F00000F800F8000000F800F8000000F800F8F0
:10410000000000F800F800F800F800F800F800F8E7
:10411000000000F800F800F800F800F800F800F8D7
:1041200000FFFFF800F800F800FFFFF800F800F8C3
:1041300000FFFFF800F800F800F8000000F800F8B1
:10414000000000F800F8000000F800F800F800F89F
:1041500000F800F800F8000000F800F800F800F897
:1041600000F800F800F800F800FFFFF800F800F889
:1041700000F8000000F800F800F800F800F800F877
:1041800000F800F800F800FFFF0000F800F800F861
:1041900000F800FFFFF8000000FFFFF800F800F84B
:1041A00000F800F800F800F8000000F800F800F847
:1041B00000F800F800F800F800F800F800F800F83F
:1041C00000F800F800F800FFFFF800F800F800F829
:1041D00000F800F800F8000000F800F800F800FF10
:1041E000FFF800F800F8000000F800F800FFFFFFFB
:1041F000FFFFFFFFFF0000F800F800F8000000F8E4
:1042000000F800F800F800F800F800F800F800F8EE
:1042100000F800F800F800F800F800F800F800F8DE
:10422000000000F800F800F800F800F800F800F8C6
:10423000000000F800F800F800F800F8000000F8AE
:1042400000F800F800F800F800F800FFFF0000F8A0
:1042500000F800F8000000F800F800F800FFFF0088
:1042600000F800F800F800F800F800F800F800F88E
:1042700000FFFF0000F800F800F800FFFFF8000062
:1042800000F800F800F8000000F800F800FFFFF860
:1042900000F800F800F800F800F800F800F800F85E
:1042A00000F800F800F800F800F800F8000000F846
:1042B00000F800F800F800F800F800F8000000FF2F
:1042C000FFFFFFF800F800F800FFFFF800F800F823
:1042D00000FFFFF800F8000000F800F800F800F810
:1042E00000FFFFF800F800F800F8000000F800FFF9
:1042F000FFF800F800F800F800F8000000F800FFF0
:10430000FFF800F800F8000000F800F800F800F8E6
:1043100000F800F800F8000000F800F800F800F8D5
:1043200000F800F800F800F800F800F800F800F8CD
:1043300000F800F8000000F800F800F800F80000AD
:1043400000F800F800F800F800F800F800F800F8AD
:1043500000F800F800F800F800F800F8000000F895
:1043600000F800F8000000F800F8000000F800F87D
:10437000000000FFFFF800F800F800F800F800F86F
:1043800000F8000000FFFFF800F800F800F800F85F
:1043900000F800F800F800F8000000F800F800F855
:1043A000000000F800F800F800F800F8000000F83D
:1043B00000F8000000F800F800F800FFFFFFFFFF22
:1043C000FFF800F8000000F800FFFFF800F800F820
:1043D00000F800F800F800F800F800F800FFFFFF10
:1043E000FF0000F800F800F800F800F800F800F806
:1043F000000000FFFFF800F800F8000000F800F8E7
:1044000000F800F800F800F800F8000000F800F8E4
:1044100000F800F800F8000000F800F800F800F8D4
:1044200000FFFF0000F800F800F800F800F800F8BE
:1044300000F800F800F800F800F800F800F800F8BC
:1044400000F800F800F8000000FFFFF800F800F89E
:1044500000F800F800F800F8000000F800F800F894
:1044600000F8000000F800F800F800F800F800F884
:1044700000F800F800F800F800F800FFFFF800F876
:1044800000F800F800F8000000F800F800F800F864
:1044900000F800F800F800F800F800F800F800F85C
:1044A00000F8000000FFFFF800F8000000F800FF2F
:1044B000FFFFFFF800F800F800F800F8000000F82F
:1044C00000F800F800F800F800F800F800F800FF25
:1044D000FF0000F800F800F800FFFFF800F800F80F
:1044E00000F800F800FFFFF800F800F8000000F8FE
:1044F00000F800F800F800FFFF0000F800F800F8EE
:1045000000F800F800F800F800FFFFF800F800F8E5
:1045100000F800F800F800F800F8000000F800F8D3
:1045200000F800F800F800F800F800F800F80000C3
:1045300000F800F800F800F800F800F8000000F8B3
:1045400000F800F8000000F800F800F800F800F8A3
:1045500000F800F800F800F800F800F8000000F893
:1045600000F800F800F800F8000000F800F800007B
:1045700000F800F800F800F800F800F800FFFFFF6E
:10458000FFFFFFF800FFFFFFFFFFFFFFFFFFFFFF41
:10459000FFF800F8000000F800F800F800F800F854
:1045A00000F800F800F8000000F800F800F800F843
:1045B000000000F800F800F800F800F800F800F833
:1045C00000F800F800F800F800F800F800F800F82B
:1045D00000F800F800F8000000F800F8000000F80B
:1045E00000F8000000F800F800F800F800FFFF00F5
:1045F00000F800F8000000F800F800F800F800F8F3
:1046000000F800F800F8000000F800F800FFFFF8DC
:1046100000F800F800FFFFF800F800F8000000F8CC
:1046200000F8000000FFFFF800F800F800F800F8BC
:1046300000F8000000F800F800F800F800F800F8B2
:1046400000F800F800F8000000FFFFF800FFFFFF8F
:10465000FFFFFFFFFFFFFFFFFFFFFFFFFFFFFFFF6A
:10466000FFFFFFF800F800F800F800F8000000F87D
:1046700000F800F800F800F800F8000000F800F872
:1046800000F800F800F800F8000000FFFFF800F85C
:1046900000F800F8000000F800F800F800F800F852
:1046A00000F800F800F800F800F800F800F800FF43
:1046B000FFF800F800F800F800F800F800F800F83B
:1046C00000F800F800FFFFF800F8000000FFFFF816
:1046D00000F800F800FFFFF800F800F800F800F814
:1046E000000000F800F800F8000000F800F800F8FA
:1046F00000F800F800F800F8000000F800F800F8F2
:1047000000F800FFFFF800F800F800F800F800FFDC
:10471000FFFFFFFFFFFFFFFFFFFFFFFFFFFFFFF8B0
:1047200000FFFFFFFFF800FFFFFFFFF800FFFFFFA4
:10473000FFFFFFF800F8000000FFFFF800F800F8A6
:1047400000F8000000FFFFF800F800F800F800FF94
:10475000FFF800F8000000F800F800F800F800008A
:1047600000F800F800F800F800F8000000F800FF7A
:10477000FFF800FFFF0000F800F800F800F8000064
:1047800000F800F800F800F800F8000000F800F861
:1047900000F800F800F800F800F800F800F800F859
:1047A00000F8000000F800F800F8000000F800F839
:1047B00000F800F800F800F800F800F800F800FF32
:1047C000FFFFFFF800F800F800F800FFFFF800F81E
:1047D000000000F800F800F800F8000000FFFFFFFC
:1047E000FFFFFFFFFFFFFFFFFFFFFFFFFFFFFFFFD9
:1047F000FFFFFFFFFFFFFFFFFFFFFFFFFFFFFFF8D0
:10480000000000F800F800F800F800F800F800F8E0
:1048100000F800F800F800F800F800F800F80000D0
:1048200000F800F800F800F800F800F800F800F8C8
:1048300000F800F800FFFFF800F800F800F800F8B2
:1048400000F800F800F800F800F8000000F800F8A0
:1048500000F800F8000000FFFFF800F800F800F88A
:10486000000000F800F8000000F800F800F8000070
:1048700000F800F800F800F800F800F800F800F878
:1048800000F800F8000000F800F800F800FFFFFF53
:10489000FFFFFFF8000000F800F800F8000000F843
:1048A00000F800F800F8000000F800FFFFFFFFFF2D
:1048B000FFF800FFFFFFFFFFFFFFFFF800FFFFFF14
:1048C000FFF800FFFFF800FFFF0000F800F800F815
:1048D00000F800F800F800F800F8000000F800F810
:1048E00000F800F800F8000000F800F800F800F800
:1048F00000F800F800F800F8000000F800F800F8F0
:1049000000F8000000F800F800F800F800F800F8DF
:1049100000F800F800F800F800FFFFF800F800F8D1
:1049200000F800F800F800F800F800F800F800F8C7
:1049300000F800F800F800F800F800F800F800F8B7
:1049400000F800F800F8000000F800F800F8000097
:1049500000F800FFFFF800F800F8000000F800FF82
:10496000FFFFFFF800F800F800F800F800F800F882
:1049700000F800F800F800F800F800F800F800FF70
:10498000FFFFFFFFFFF800F800FFFF0000F800FF47
:10499000FFFFFFFFFFFFFFF800FFFFFFFF0000F832
:1049A00000F800F8000000F800F800F800F800FF38
:1049B000FF0000F800F800F800FFFF0000F800F822
:1049C00000F8000000FFFFF800F800F8000000FF0A
:1049D000FFF800F800F800F800F8000000F800F810
:1049E00000F800F8000000F800F800F800F800F8FF
:1049F000000000FFFFF800F8000000F800F800FFDA
:104A0000FFF800F800F800FFFFF8000000F800FFD2
:104A1000FFF800F800F800FFFFF800F800F800F8D1
:104A200000F800F800F800F800F800FFFFFFFFFFB3
:104A3000FFFFFFF800FFFFFFFFFFFFFFFFFFFFF893
:104A400000F8000000F800FFFFF800F800F8000090
:104A500000F800F8000000F800F800F800FFFFFF81
:104A6000FFFFFFFFFFFFFFFFFFFFFFFFFFFFFFF85D
:104A700000F800F800F800F800F800F800F800F876
:104A800000F800F800F800F800F800F800F800F866
:104A900000F800FFFFFFFFF800F800F800F800F84A
:104AA00000F800F8000000F800F800FFFFF800F838
:104AB00000F800F800F800F800F8000000F800F82E
:104AC00000F800F800F800F800F800F800F800001E
:104AD00000F800F8000000F800F800F800F800F80E
:104AE00000F8000000F800F800F800F800F800F8FE
:104AF000000000F800F8000000F800F800FFFFF8E0
:104B000000FFFFFFFFFFFFFFFFFFFFFFFFFFFFFFB4
:104B1000FFF800F800F800F8000000F800F800F8CE
:104B200000F800F800F800FFFFFFFFFFFFFFFFF8AD
:104B300000FFFFFFFFF800FFFFFFFFFFFFFFFFF891
:104B4000000000F800F800F800FFFFF8000000F88F
:104B500000F800F8000000F800F800F800F8000085
:104B600000F800F800FFFFFFFF0000F800F800F871
:104B700000F800F800F800F800F800F800F800F875
:104B800000F800F800F800F800F800F800F800F865
:104B900000F800F8000000F800F800F800F800F84D
:104BA00000F800F800F800F800F800F800F800003D
:104BB00000F800F800F800F8000000F800F800F82D
:104BC00000FFFFF800FFFFFFFFFFFFFFFFFFFFFFFA
:104BD000FFFFFFFFFFF800FFFFF800FFFFFFFFF8F8
:104BE00000F800F800F800F800F800F800F800F805
:104BF00000F800F800FFFFFFFFFFFFFFFFFFFFFFD0
:104C0000FFFFFFFFFFFFFFFFFFF800F800F800F8CD
:104C100000F800F800F8000000F800F800F800F8CC
:104C200000F800F800F800F800F800F800F800F8C4
:104C300000F800F800F800F800F800F800F80000AC
:104C400000F800F800FFFFF8000000F800F800F896
:104C500000F800F800F8000000F800F800FFFF007E
:104C600000F800F800F800F800FFFFF8000000F876
:104C700000F800F800F800F8000000F800F800F86C
:104C800000F800F800F800F800FFFFF800FFFFFF51
:104C9000FFFFFFFFFFFFFFFFFFFFFFFFFFFFFFFF24
:104CA000FFFFFFFFFFFFFFFFFFFFFFFFFFFFFF0013
:104CB00000F800F8000000F800F800F800F800F82C
:104CC000000000F800FFFFFFFFFFFFFFFFF800FFFD
:104CD000FFF800F8000000F800FFFFF8000000F8FF
:104CE00000F800FFFFF800F800F800F800F800F8FE
:104CF000000000F800FFFFF800F8000000FFFFF8D8
:104D000000F800F8000000F800F800F800F800F8DB
:104D100000F8000000F800F800F8000000F800F8C3
:104D200000F800F800FFFFF800F800F800F800F8BD
:104D300000F800F800F800F8000000F800F800F8AB
:104D400000FFFF0000F800F800F800FFFFF800F88F
:104D500000F8000000F800FFFFFFFFFFFFFFFFFF6C
:104D6000FFF800FFFFFFFFF800FFFFF800FFFFF86C
:104D700000FFFFFFFFFFFFFFFF0000F800F800F853
:104D800000F800F800F800FFFFF8000000F800F855
:104D900000F800F800FFFFF800F800F800FFFF003F
:104DA00000FFFFFFFFFFFFFFFFFFFFFFFFFFFFF819
:104DB00000F8000000F800F800F8000000F800FF1C
:104DC000FFF800F800F8000000F800F800F800F81C
:104DD000000000F800F800F800F800FFFFF800F805
:104DE00000F800F800F800F800F800F800F800F803
:104DF00000F8000000F800F800F8000000F800F8E3
:104E000000F8000000F800F800F800F800F800F8DA
:104E100000F800F800F800F800F800F8000000F8CA
:104E200000F800F800F800FFFFFFFFFFFFF800FFA9
:104E3000FFFFFFFFFFFFFFFFFFFFFFFFFFFFFFFF82
:104E4000FFFFFF0000F800F800F800F800F800F895
:104E500000F800F800F800F800F800F800FFFFF88C
:104E600000F800F800F8000000FFFFFFFFFFFFFF61
:104E7000FFFFFFFFFFFFFFFFFFF800FFFFFFFFFF48
:104E8000FFF800F800F800F800F800F800F800F863
:104E900000F800F800F800F800F800F800F800F852
:104EA00000F800F800F800F8000000F800F8000032
:104EB00000F800F800F800F800F800F800F800F832
:104EC00000F800F800F800F800F800F800F800F822
:104ED00000F800FFFFF800F800F800F8000000F804
:104EE00000F800F800F8000000F800F800F800F8FA
:104EF00000F800F800FFFFFFFFF800FFFFFFFFFFD3
:104F0000FFFFFFFFFFF800FFFFFFFFFFFFFFFFFFB7
:104F1000FFF800FFFFF800F800F8000000F800F8C4
:104F2000000000F800F8000000F800F800F80000A9
:104F300000F800F800F800FFFFFFFFFFFFF800FF98
:104F4000FFFFFFF800FFFFFFFFFFFFFFFFF800FF7D
:104F5000FFF800F800F8000000F800F800F8000082
:104F600000FFFFFFFFFFFFF800F8000000F800F867
:104F700000F800FFFFF800F800F800F800F800F86B
:104F800000FFFFF8000000F800FFFF0000F800F845
:104F900000F800F800F8000000FFFFF800F800003B
:104FA00000F800F800F8000000F800F800F800F839
:104FB000000000F800FFFFF800F800F800F800F823
:104FC00000F800F8000000FFFFFFFFFFFFFFFFFFFA
:104FD000FFFFFF0000FFFFFFFFFFFFF800FFFFFFE5
:104FE000FFFFFFFFFFFFFFF800FFFFF800F800F8EA
:104FF00000F800F800F800F800F800F800F800F8F1
:1050000000F8000000F800FFFFFFFFFFFFFFFFFFB9
:10501000FFFFFFFFFFF800FFFFF800FFFFFFFFFFAC
:10502000FFFFFF0000F800FFFFF800F800F800F8AD
:1050300000F800FFFFFFFFF800FFFFF800F800F89E
:1050400000F800F8000000F800F800F800F800F898
:1050500000F800F800F800F800F800F800F800F890
:1050600000F800F800F800F800F800F800F800F880
:1050700000F800F800F800F800FFFFF800F800F86A
:1050800000F800F800F800F800F8000000FFFFF852
:10509000000000F800F800FFFFF800FFFF0000F834
:1050A00000F800F800FFFFFFFFFFFFFFFF0000FF19
:1050B000FFFFFFFFFFFFFFFFFFFFFFF800FFFF0005
:1050C00000F800F800F800F800F8000000F800F818
:1050D00000F800F800FFFFFFFFFFFFF800FFFFF8F8
:1050E00000F8000000F800F8000000FFFFFFFFFFDD
:1050F000FFF800F800F800F800F8000000FFFFF8E3
:1051000000FFFFFFFFFFFFFFFFFFFFFFFFF80000B3
:1051100000F800F800F800F800F8000000F800F8C7
:10512000000000F800F800F800F800F800F800F8B7
:1051300000F8000000F800F800F8000000F800F89F
:1051400000F8000000F800F800F8000000F800F88F
:1051500000F800F8000000F800F800F800F800F887
:1051600000F800F800F800F800F800F800F800F87F
:1051700000F800F800FFFFFFFFFFFFF800F800F85D
:1051800000F800FFFFFFFFFFFFFFFFFFFFFFFFFF34
:10519000FFFFFFFFFFF8000000FFFFF800F800F836
:1051A00000F800F800F800FFFFFFFFFFFF0000F825
:1051B00000F800F800F800F800F800FFFFFFFFFF1C
:1051C000FFFFFFF800F800F800F800F800FFFFFF0D
:1051D000FFFFFFFFFFF800F800FFFFFFFFF800F8F8
:1051E00000F800F800F800F800F800FFFFF800F8F9
:1051F00000F800F8000000F800F8000000F800F8DF
:1052000000F800F800F800F800F800F800F800FFD7
:10521000FFF800F800F800F800F800F800F800FFC8
:10522000FFF800F800F800F800F800F800F800F8BF
:1052300000F800F8000000F800F8000000F800F89E
:10524000000000FFFFFFFFF800FFFFF800F800F884
:1052500000FFFFF800FFFFFFFFFFFFFFFFFFFFFF63
:10526000FFFFFFFFFFFFFFF800F800F800F8000065
:1052700000F800F800FFFFFFFFFFFFF800F800F85C
:1052800000F800F800F800F800FFFFFFFFF800FF4B
:10529000FFF8000000F800F800F800F800F800FF40
:1052A000FFFFFFF800F800FFFFFFFFF800F800F82D
:1052B000000000F800F8000000F800F800F800F81E
:1052C00000F800FFFFF800F800F800F800FFFFF812
:1052D00000F800F800FFFF0000F800F800F80000F8
:1052E00000F800F800F8000000F800F800F800F8F6
:1052F000000000F800F800F8000000F800F80000D6
:1053000000F800F800F800F800F800F800F800F8DD
:1053100000F800FFFFFFFFFFFFFFFF0000F800F8AD
:10532000000000F8000000F800F800FFFFFFFFFF9A
:10533000FFF800FFFFFFFFFFFFF800F800FFFFF896
:1053400000F8000000F800FFFFFFFFFFFFFFFFF87D
:10535000000000FFFFFFFFFFFFFFFFFFFFFFFFFF5A
:10536000FFFFFFF800F8000000F800F8000000F868
:1053700000FFFFFFFFFFFFFFFFFFFF0000F800F847
:1053800000F800F800FFFFF800F8000000F800F84F
:10539000000000F800F800F800F800F800F800F845
:1053A00000F800F800F800F800F800F800F800F83D
:1053B00000F800F800FFFFF800F800F8000000F81F
:1053C00000F800F800FFFFF800F800F800FFFFF811
:1053D00000F800F800FFFFF800F800F800F800F807
:1053E00000FFFFFFFFFFFFFFFFF800F800F800F8E5
:1053F00000F800F800F800F800F8000000FFFFF8DF
:1054000000FFFFFFFFFFFFF8000000F800F800F8C2
:1054100000F800F800FFFFFFFFFFFFF800FFFFFFAD
:10542000FFFFFFFFFFFFFFFFFFF800FFFFFFFFF899
:1054300000F800F800F800F800F800F800F800FFA5
:10544000FFFFFFFFFFF800FFFFFFFFF800F800F885
:1054500000F800F800F800F800F800F800F800F88C
:1054600000F800F800F8000000F800F8000000F86C
:1054700000F800F800F800F800F8000000F800F864
:1054800000F8000000F800F800F800F800F800F854
:1054900000F800F8000000F800F800F800F800F844
:1054A00000F8000000F800F8000000F800F8000024
:1054B00000FFFFF800FFFFFFFFF800F800F800F81A
:1054C00000F800F800F800F800F800F800F800F81C
:1054D00000F800F800FFFFF800F800F800F80000FE
:1054E00000F800F800F800F800FFFFFFFFFFFFFFE3
:1054F000FFFFFFFFFFFFFFFFFFFFFFFFFFFFFFF8C3
:1055000000F8000000F800F800F800F800F800F8D3
:1055100000F800FFFFF800F800F800F800F800F8C5
:10552000000000F800F8000000F800F800F800F8AB
:1055300000F800F800F800FFFFF800F800F800F8A5
:1055400000F800F8000000F800F800FFFFF800F88D
:1055500000F800F800F800F8000000FFFFF800F87D
:1055600000F800F800F800F800F8000000F800F873
:1055700000F800F800F800F800F800F800F800FF64
:10558000FFFFFFFFFFFFFFF8000000F800F800003A
:1055900000F800F8000000F800F800F800F800003B
:1055A00000F800F8000000F800F800F800F800F833
:1055B00000F800F8000000F800FFFFFFFFFFFFFF0A
:1055C000FFF800FFFFF800FFFF0000F800F8000000
:1055D00000F800F800F800F8000000F800F80000FB
:1055E00000F800F8000000F800F8000000F800F8EB
:1055F00000FFFFF800F800F800F800FFFF0000F8D7
:1056000000F8000000F800F800F800F800F800F8D2
:1056100000F800F800F800F800F800F800F80000C2
:1056200000F800F800F800F800F800F800F800F8BA
:10563000000000FFFFF800F800F800F800F8000094
:1056400000F800F800F800F800F800F800F800F89A
:1056500000FFFFFFFFFFFFF800F800F800F800F878
:1056600000F800F800FFFFF8000000F800F800F86C
:1056700000F800F800F800F800F8000000F800F862
:1056800000F800F800F800F800F8000000F800F852
:1056900000FFFF0000F800F800F800F800F800F83C
:1056A00000F800F800F800F800FFFFF800F800F834
:1056B00000F800F800F800F800F800F800F800F82A
:1056C00000F800F800F800F800F800F800F800F81A
:1056D00000F800F800F800F800F8000000F800F802
:1056E00000F800F800F800F8000000F800F800F8F2
:1056F00000FFFFF8000000F800F800F8000000F8D4
:1057000000FFFFFFFFF8000000F800F800FFFFF8BF
:1057100000F800F8000000FFFFF8000000FFFFFFA6
:10572000FFFFFFFFFFF800F800F8000000F800FF9F
:10573000FFF800F800F800F800F800F800F800F8AA
:1057400000FFFFF800F800F800F800FFFFF800F88D
:10575000000000F800F800F800F800F800F800F881
:1057600000F800F800F800F800F800F800F800F879
:1057700000F8000000F800F800F800F800F800F861
:1057800000F800F800F800F800F800F8000000F851
:1057900000F8000000F800F8000000F800F800F839
:1057A00000FFFFF800F8000000F800F800F800F82B
:1057B00000F8000000FFFFF800F800F800F800F81B
:1057C00000F800F800F800F800F800F800F800F819
:1057D00000FFFFFFFFFFFFF800F800F800F800F8F7
:1057E00000F800F800F800F800F800F800F800FFF2
:1057F000FFFFFFFFFFFFFFF800F800F800F80000D0
:1058000000F800F8000000F800F800F800F800F8D0
:10581000000000F800F8000000F800F800F800F8B8
:1058200000FFFFF800F8000000F800F800F80000A2
:1058300000F800F800F8000000F800F8000000F898
:1058400000F800FFFFF800F800F8000000F800F88A
:10585000000000FFFFF8000000F800FFFFF800F86C
:1058600000F800F800FFFFF800F800F800F800F872
:10587000000000F800F800F800F800FFFFF800F85A
:1058800000F800F800F800F800F800F8000000F850
:1058900000F800F800F800F8000000F800F800F840
:1058A00000F800F800F800F800F8000000F800F830
:1058B000000000F800F800F800F800F800F800FF19
:1058C000FFFFFFF8000000F800F800F800F800F80B
:1058D00000F800F800F800F800F800FFFF0000F8FA
:1058E00000F800F800F800F800F800F8000000F8F0
:1058F00000F800F800F800F800F800F800F800F8E8
:1059000000F800F800F800F800F800F800F800F8D7
:1059100000F800F800F8000000F800F800F800F8BF
:1059200000F800F800F800F800F800F800F800F8B7
:1059300000F800F800F800F800F800F8000000F89F
:1059400000F800F800F800F800F800F8000000F88F
:1059500000F800F800F8000000F800FFFFF800F879
:1059600000F8000000F800F800FFFFF8000000F861
:1059700000F800F8000000F800F800F800F800F85F
:1059800000FFFFF800F800F8000000F800F8000041
:1059900000F800F800F800F8000000F800F800F83F
:1059A00000F800F800F8000000F800F800F800F82F
:1059B00000F8000000F800F800F800F800F800F81F
:1059C00000F8000000F800FFFFF8000000F800F801
:1059D00000F8000000F800F800F800FFFFF800F8F9
:1059E000000000F800F800F800F800FFFFFFFFF8E3
:1059F00000F800F800F800F800F8000000F800F8DF
:105A0000000000F800F8000000F800FFFFF800F8C0
:105A100000F800F800F8000000F800F800F800F8BE
:105A200000F800F800F800F800F800F800F800F8B6
:105A300000F800F800F800F800F800F800F800F8A6
:105A400000F800F800F800F800F800F800F800F896
:105A500000F800F8000000F800F800F800F800F87E
:105A600000F800F800F800F800F800FFFFF8000068
:105A700000F800FFFFF800F800F800F800F800F860
:105A800000F800FFFFF800F8000000F800F800F848
:105A900000F800F800F800F800F800F800F800FF3F
:105AA000FFF800F800F800F8000000F800F800F82F
:105AB00000F800F800F800F800F800FFFFFFFF0012
:105AC00000F800F8000000F800F800F800F800F80E
:105AD00000F800F800F800F800F800F800F800F806
:105AE000000000FFFFF800F800F800F800F800F8E8
:105AF00000F8000000F800F800F800F800F80000D6
:105B000000F800FFFFF8000000F800F800F800F8C7
:105B1000000000F800F800FFFF0000F800F80000A7
:105B200000F800F800F800F800FFFFF800F800F8AF
:105B300000F800F8000000F800F800F800F800F89D
:105B400000F8000000F800F800F800F8000000F885
:105B500000FFFFFFFFFFFFF800F800F800FFFF0065
:105B600000F800F800F8000000F800F800F800F86D
:105B7000000000F800F800F800F800F800FFFF004F
:105B800000F800F800F8000000F800FFFFFFFFFF3A
:105B9000FFF800F800F800F800FFFFF800F800F840
:105BA00000FFFFF800F800F800F8000000F800F827
:105BB00000F800F800F800F800F8000000F800F81D
:105BC00000F800F800F800F8000000F800F800F80D
:105BD00000F800F800F800F800F800F800F800FFFE
:105BE000FFF800F800F800F800F800F800F800F8F6
:105BF00000F800F800F800F8000000F800F80000D5
:105C000000F800FFFFF800F800F8000000F800F8C6
:105C100000F800F800F800F8000000F800F800F8BC
:105C200000FFFFFFFFF800F800F800F800F800F8A8
:105C300000F800F800F800F800F800F8000000F89C
:105C400000F800FFFFFFFFFFFFFFFFFFFFFFFFFF69
:105C5000FFF800F800F800F800F800FFFFFFFFFF72
:105C6000FFF800F800F800F8000000F800F8000065
:105C700000F800F8000000F800F800F800F800F85C
:105C800000F800F8000000F800FFFFF800F800F846
:105C900000F800FFFFF800F800F800FFFFF800F838
:105CA00000F8000000F800F800F800F8000000F824
:105CB00000F800F8000000F800F800F800F800FF15
:105CC000FFF8000000F800F800F800F800F800F80D
:105CD00000F800F800F800F800F800F800F800F804
:105CE00000F800F800F800F800FFFFF800F800F8EE
:105CF00000F800FFFF0000F800F8000000F800F8CE
